:020000040800F2
:1000000030050020450100088F48000891140008C1
:100010008D4800085F040008774B000800000000CE
:10002000000000000000000000000000B3480008CD
:100030006104000800000000B1480008B54800084D
:100040005F0100085F0100085F0100085F01000810
:100050005F0100085F0100085F0100085F01000800
:100060005F0100085F0100085F0100085F010008F0
:100070005F0100085F0100085F0100085F010008E0
:100080005F0100085F0100085F0100085F010008D0
:100090005F0100085F0100085F0100085F010008C0
:1000A0005F0100085F0100085F0100085F010008B0
:1000B0005F0100085F0100085F0100085F010008A0
:1000C0005F0100085F0100085F0100085F01000890
:1000D0005F0100085F0100085F0100085F01000880
:1000E0005F0100085F0100085F0100085F01000870
:1000F0005F0100085F0100085F0100085F01000860
:100100005F0100085F0100085F0100085F0100084F
:100110005F0100085F0100085F0100085F0100083F
:100120005F0100085F0100085F0100085F0100082F
:10013000DFF80CD000F072F9004800478550000845
:10014000300500200648804706480047FEE7FEE7E6
:10015000FEE7FEE7FEE7FEE7FEE7FEE7FEE7FEE777
:100160002D49000831010008202A04DB203A21FA39
:1001700002F00021704721FA02F3D040C2F12002C0
:10018000914008431946704740EA01039B0703D09A
:1001900009E008C9121F08C0042AFAD203E011F8C6
:1001A000013B00F8013B521EF9D27047D2B201E088
:1001B00000F8012B491EFBD270470022F6E710B56C
:1001C00013460A4604461946FFF7F0FF204610BDC5
:1001D0002DE9FE4F81EA030404F0004421F00041C0
:1001E00000944FF0000B23F0004350EA01045ED06E
:1001F00052EA03045BD0C3F30A54C1F30A552C44FA
:10020000A4F2F3340194A0FB0254C1F3130141F4AE
:100210008011C3F3130343F4801301FB024400FB7A
:10022000034E840A970A44EA815447EA8357A4FBA1
:10023000076802958D0A05FB07854FEA932C04FB9E
:100240000C542705029D4FEA065847EA1637B5EBCE
:1002500008056EEB070C870E920E47EA811742EAFB
:100260008312A7FB0201B6EB0B0164EB00042B0D1C
:1002700043EA0C335E1844EB1C50DA465146E7FB68
:100280000201C5F313044FEA0B3343EA14534FEA58
:100290000432019C43EA0603A4F10C040294009C7E
:1002A000CDE900B400F06CF803B0BDE8F08F002099
:1002B0000146F9E70EB540F2334102910021CDE944
:1002C00000110A460B4600F05BF803B000BDC1F315
:1002D0000A5210B5C1F3130140F2FF3341F480110B
:1002E0009A4201DA002010BD40F233439A42A2F252
:1002F000334203DC5242FFF737FF10BD904010BD80
:100300002DE9F05F0546002092469B46884606464A
:10031000814640241BE02846414647462246FFF7D7
:1003200023FF53465A46C01A914110D3114618462E
:10033000224600F085F82D1A67EB01084F46224649
:100340000120002100F07CF817EB00094E41201E2F
:10035000A4F10104DFDC484631462A464346BDE8A5
:10036000F09F10B5141E73F1000408DA401C41F12F
:10037000000192185B411A4301D120F0010010BD29
:100380002DE9F04D92469B4611B1B1FA81F202E09F
:10039000B0FA80F22032904600F052F804460F4640
:1003A00040EA0A0041EA0B0153465A46084313D07B
:1003B000114653EA010019D0C8F140025046FFF738
:1003C000D3FE05460E4650465946424600F038F8E0
:1003D000084305D0012004E020463946BDE8F08DF1
:1003E0000020054346EAE0762C4337430A9863052C
:1003F000E40AA0EB08000022FD0A44EA47540A3050
:1004000002D500200146E9E7010510196941DDE93F
:10041000084500196941BDE8F04DA2E7064C074DBB
:1004200006E0E06840F0010394E8070098471034C4
:10043000AC42F6D3FFF780FE4C5200086C52000825
:10044000202A04DB203A00FA02F100207047914094
:10045000C2F1200320FA03F3194390407047FEE7EE
:100460007047000070B5B3F5804F05D06FF0704154
:1004700040F82210002070BD8C690B68F0252343E2
:1004800095FAA5F54C68B5FA85F5AC404FF47F4672
:1004900096FAA6F68D68B6FA86F6B5402C43234345
:1004A0004FF47024C96894FAA4F4B4FA84F4A14017
:1004B0000B4350F82210034C21400B4340F82230EC
:1004C000D8E700000000F0CF30B50A6850F82230BD
:1004D00023F0010340F822308C68204B4A68082C36
:1004E0001ED02243D1E903452C4322434C692243C9
:1004F0008C692243CC6922430C6A22434C6A224312
:100500008C6A2243CC6A22430C6B0968224350F860
:1005100021401C4052EA040240F82120002030BD56
:10052000D1E9034542F008022C4322434C6922439F
:100530008C692243CC6922430C6A22434C6A2243D1
:100540008C6A2243CC6A22430C6B0968224350F820
:1005500021401C40224342F04002DDE78100F7FFCA
:1005600070B5F025D1E9003495FAA5F5B5FA85F511
:10057000AC4023434FF47F4595FAA5F58C68B5FA56
:1005800085F5AC404FF4702696FAA6F6CD68B6FA1B
:1005900086F6B5402C4323434FF470050C6995FA59
:1005A000A5F5B5FA85F5641EAC4023434FF07065A0
:1005B0004C6995FAA5F5B5FA85F5A41EAC40896994
:1005C000234300EB82000B43416801F040410B43A1
:1005D0004360002070BD31B500F040F9044600F0E2
:1005E0003DF90099001B8842F9D338BD30B5174852
:1005F00085B00168002927D10121016014484169B3
:1006000041F4807141614069022400F480700490DB
:1006100041F20100CDE900040325694603950D4828
:1006200000F01EF84FF68070CDE90004694603958E
:10063000094800F015F84CF23370CDE90004694622
:100640000395064800F00CF805B030BD000000200E
:100650000010024000200140001801400014014039
:100660002DE9F84FDFF8B8A100220AF1040B144677
:1006700001274FF00F090BF1040E00BF0B6807FABA
:1006800004F52B40AB4274D1DFF898C14E68A6EB5D
:100690000C0866452BD00DDC032E34D005DC36B3B8
:1006A000012E19D0022E2FD11BE0112E16D0122EA2
:1006B0002AD119E0B8F5881F19D006DCB8F5803FBB
:1006C00015D0B8F5801F1FD111E0B8F5001F0ED06E
:1006D000B8F5041F18D10AE0CA6815E0CA68121DEF
:1006E00012E0CA6808320FE0CA680C320CE08A686F
:1006F0002AB1012A4FF0080203D0456104E0042228
:1007000002E0056100E00022FF2B01D8064601E06F
:1007100000F104064FEA840501D9A5F12005D6F8B9
:1007200000C009FA05F82CEA080C02FA05F54CEAB3
:10073000050CC6F800C04D68ED006AD53A4DAE69AB
:1007400046F00106AE61AD6924F0030605F001052F
:100750000095364D06EB050CDCF80850A6074FEA6D
:10076000167809FA08F6B543314EB04202D1002698
:100770001AE04EE02F4EB04201D1012614E02E4E79
:10078000B04201D102260FE02C4EB04201D1032627
:100790000AE02B4EB04201D1042605E0294EB042BA
:1007A00001D1052600E0062606FA08F62E43CCF80D
:1007B00008604D68DAF80060ED03554601D51E4328
:1007C00000E09E432E604D68AD0305D5DBF8006068
:1007D0001E43CBF8006004E0DBF800509D43CBF8EB
:1007E00000504D68DEF80060ED02754601D51E43ED
:1007F00000E09E432E604D68AD0205D5084D0C35D6
:100800002E681E432E6004E0054E0C3635689D436D
:100810003560641C102CFFF431AFBDE8F88F000088
:1008200000040140000011100010024000000140CF
:1008300000080140000C014000100140001401407C
:1008400000180140001C0140C2684A40C260704765
:100850000AB1016170470904FBE700000148006824
:10086000704700002800002002480168491C016010
:100870007047000028000020074810B5016841F0CB
:1008800010010160032000F07BF8002000F006F862
:1008900000F016F8002010BD0020024010B50446FC
:1008A00000F044F94FF47A71B0FBF1F000F0B1FCC4
:1008B00000222146501E00F043F8002010BD000029
:1008C0001D4808B5816941F001018161806900F02E
:1008D00001000090032000F053F8002211466FF051
:1008E0000B0000F02DF8002211466FF00A0000F016
:1008F00027F8002211466FF0090000F021F80022CD
:100900001146501F00F01CF800221146101F00F085
:1009100017F800221146901E00F012F8002211462E
:10092000501E00F00DF80548416821F0E06141F0EB
:100930008061416008BD00000010024000000140DD
:10094000F0B40E4B1B680C46C3F30223C3F107053A
:10095000042D00D90425191D072901D2002300E028
:10096000DB1E012606FA05F1491E214099409E40F2
:10097000761E16403143F0BC03F08ABF0CED00E058
:10098000064900F0070208684FF6FF03184040EAE6
:100990000220034A10430860704700000CED00E09D
:1009A0000000FA052DE9F047DFF8708105460E4694
:1009B000D8F8000000F00700B0420CD2D8F80010C0
:1009C00021F007013143C8F80010D8F8000000F00A
:1009D0000700B04277D12878514C800705D5606870
:1009E000A96820F0F000084360602878C00759D05B
:1009F0006968012001290DD0022929D05FF0020386
:100A000093FAA3F2B2FA82F242F02002520904D021
:100A1000226803E04FF40033F2E7626A93FAA3F32B
:100A2000B3FA83F303F01F03984002424BD060688F
:100A300020F0030008436060FFF710FF6968074675
:100A400041F2883001290DD00229814617D025E0D6
:100A50004FF00073D4E700BFFFF700FFC11B49450B
:100A600001D918E081466068C0F381000128F3D104
:100A700018E000BFFFF7F2FEC11B49450BD86068C4
:100A8000C0F381000228F5D10CE000BFFFF7E6FEBD
:100A9000C11B494502D90320BDE8F087606810F00A
:100AA0000C0FF3D1D8F80010404601F00701B14215
:100AB0000BD9016821F0070131430160006800F0A3
:100AC0000700B04201D00120E6E72878400705D5AD
:100AD0006068E96820F4E0600843606028780007F7
:100AE00006D56068296920F4605040EAC100606062
:100AF00000F052F86168F02292FAA2F201F0F001DF
:100B0000B2FA82F2D140074A515CC84006490860F7
:100B10000020FFF7C3FE0020BEE7000000200240D7
:100B200000100240345200082C00002001480068E8
:100B3000704700002C0000200848094900684968F7
:100B40004FF4E06292FAA2F201F4E061B2FA82F2AA
:100B5000D140044A515CC840704700002C0000207E
:100B600000100240445200080848094900684968DA
:100B70004FF4605292FAA2F201F46051B2FA82F29A
:100B8000D140044A515CC840704700002C0000204E
:100B9000001002404452000810B519A385B00FCBD5
:100BA0008DE80F001AA01B4B006804905A681A4881
:100BB00002F00C0104291DD008291BD14FF4701438
:100BC00094FAA4F402F47011B4FA84F4E140D2036C
:100BD0001DF8011010D55A684FF4003393FAA3F3AF
:100BE00002F40032B3FA83F3DA4004AB9A5CB0FB50
:100BF000F2F0484305B010BD08484843FAE700004A
:100C000002030405060708090A0B0C0D0E0F10104D
:100C1000010200000010024000127A0000093D00AD
:100C20002DE9F84F04460078F74DC0074FF0010654
:100C300025D068687704C0F38100012807D0686870
:100C4000C0F3810002281BD16868C00318D597FA49
:100C5000A7F0B0FA80F040F02000400901D02868E9
:100C600000E0686A97FAA7F1B1FA81F101F01F017B
:100C700006FA01F108425ED0606800287CD05AE094
:100C80006068B0F5803F0BD010B1B0F5A02F11D047
:100C9000286820F480302860286820F4802002E052
:100CA000286840F480302860606828B3FFF7D6FDDC
:100CB00080460BE0286840F480202860F0E700BF01
:100CC000FFF7CCFDA0EB0800642871D897FAA7F0D5
:100CD000B0FA80F040F02000400901D0286800E020
:100CE000686A97FAA7F1B1FA81F101F01F0106FADB
:100CF00001F10842E4D01EE0FFF7B0FD804605E0B8
:100D0000FFF7ACFDA0EB08006428DED897FAA7F047
:100D1000B0FA80F040F02000400901D0286800E0DF
:100D2000686A97FAA7F1B1FA81F101F01F0106FA9A
:100D300001F10842E4D12078DFF8D08280074FF03B
:100D400000094FF002075BD568684FF0F80B10F010
:100D50000C0F07D06868C0F3810002281CD16868B6
:100D6000C00319D497FAA7F0B0FA80F040F0200041
:100D7000400902D0286801E08BE0686A97FAA7F181
:100D8000B1FA81F101F01F0106FA01F108422CD0FD
:100D9000206901287DD128E0206990B396FAA6F059
:100DA000B0FA80F048F82060FFF758FD824607E06F
:100DB00011E100BFFFF752FDA0EB0A00022884D822
:100DC00097FAA7F0B0FA80F040F02000400901D077
:100DD000286800E0686A97FAA7F1B1FA81F101F09A
:100DE0001F0106FA01F10842E4D028689BFAABF231
:100DF0006169B2FA82F220F0F8009140084328605D
:100E000025E0FFE796FAA6F1B1FA81F148F82190C2
:100E1000FFF724FD824605E0FFF720FDA0EB0A0066
:100E20000228CCD897FAA7F0B0FA80F040F0200062
:100E3000400901D0286800E0686A97FAA7F1B1FA82
:100E400081F101F01F0106FA01F10842E4D1207896
:100E500000076ED5A069B8B396FAA6F0B0FA80F094
:100E600008EB8000C0F88064FFF7F8FC824605E0DC
:100E7000FFF7F4FCA0EB0A000228A0D897FAA7F02D
:100E8000B0FA80F040F06000B6EB501F02D1286845
:100E90000CE062E197FAA7F0B0FA80F040F0600051
:100EA000B7EB501F01D1286A00E0686A97FAA7F1F2
:100EB000B1FA81F101F01F0106FA01F21042D7D018
:100EC0000120FFF788FB34E0FFE796FAA6F1B1FABC
:100ED00081F108EB8101C1F88094FFF7BFFC8246E5
:100EE00006E000BFFFF7BAFCA0EB0A00022872D8A8
:100EF00097FAA7F0B0FA80F040F06000B6EB501F10
:100F000001D128680BE097FAA7F0B0FA80F040F022
:100F10006000B7EB501F01D1286A00E0686A97FAB9
:100F2000A7F1B1FA81F101F01F0106FA01F21042B6
:100F3000D8D12078400765D5E86940F08050E86155
:100F4000E869DFF8CCB000F080500090DBF80010CA
:100F500041F48071CBF80010FFF780FC824605E079
:100F6000FFF77CFCA0EB0A00642834D8DBF8000013
:100F7000C005F5D5E06801280AD008B1052813D0CE
:100F8000286A20F001002862286A20F0040002E0AC
:100F9000286A40F001002862E06841F2883B90B383
:100FA000FFF75CFC82460BE0286A40F004002862F0
:100FB000EEE700BFFFF752FCA0EB0A0159450AD843
:100FC00097FAA7F0B0FA80F040F04000B6EB501F5F
:100FD00002D128680CE0A3E097FAA7F0B0FA80F0FD
:100FE00040F04000B7EB501F01D1286A00E0686A6A
:100FF00097FAA7F1B1FA81F101F01F0206FA02F1A6
:101000000842D7D031E005E0001002400000424223
:1010100000700040FFF722FC824605E0FFF71EFC4F
:10102000A0EB0A0159457BD897FAA7F0B0FA80F0F7
:1010300040F04000B6EB501F01D128680BE097FA52
:10104000A7F0B0FA80F040F04000B7EB501F01D19C
:10105000286A00E0686A97FAA7F1B1FA81F101F015
:101060001F0206FA02F10842D8D1E06980B369682C
:10107000C1F38101022970D04FF080714F00022826
:10108000484609D091FAA1F1B1FA81F148F821005E
:10109000FFF7E4FB044669E08A4691FAA1F1B1FA50
:1010A00081F1C14648F82100FFF7D8FB804605E0F2
:1010B000FFF7D4FBA0EB0800022854D897FAA7F05A
:1010C000B0FA80F040F02000400902D0286801E02A
:1010D00061E0686A97FAA7F1B1FA81F101F01F01A6
:1010E00006FA01F10842E3D1206AB0F5803F05D14C
:1010F0006868A16820F4003008436860D4E90801FA
:101100000843696821F47411084368609AFAAAF0E8
:10111000B0FA80F049F82060FFF7A0FB044606E033
:1011200021E000BFFFF79AFB001B02281BD897FAAB
:10113000A7F0B0FA80F040F02000400901D0286804
:1011400000E0686A97FAA7F1B1FA81F101F01F0196
:1011500006FA01F10842E5D01DE01EE0FFF77EFB34
:10116000001B022802D90320BDE8F88F97FAA7F0E8
:10117000B0FA80F040F02000400901D0286800E07B
:10118000686A97FAA7F1B1FA81F101F01F0106FA36
:1011900001F10842E2D10020E6E70120E4E770B562
:1011A00015460E46040003D094F83D0010B107E048
:1011B000012070BD002084F83C00204600F01AF8A1
:1011C00004F108012068FFF77FF93146A268206822
:1011D000FFF7C6F9D4E901022946236BFFF742F96C
:1011E000A168206850F8212042F0010240F8212037
:1011F000002070BDFFF7FAB94FF0E021042808691C
:1012000003D020F004000861704740F00400FAE7C2
:10121000704710B5401EB0F1807F01D3012010BD92
:101220004FF0E02460610F21601703F031FB0020D4
:10123000A06107202061002010BD10B5FFF7E8FF76
:1012400010BD70B5040004D094F83900002510B129
:1012500006E0012070BD84F83850204600F020F8E8
:10126000022084F839002068C16821F40051C1606F
:10127000204603F07FFB2068016921F49041016161
:101280002068416921F02A0141612068C16841F468
:101290000051C160E563012084F83900002070BD71
:1012A00010B50068114986B088421DD11048816987
:1012B00041F48041816180690E4C00F480400490CB
:1012C0004FF40070009002200190032003906946C3
:1012D0002046FFF7C5F900212015CDE90001029154
:1012E00069462046FFF7BCF906B010BD0038014042
:1012F00000100240000801402DE9F047044690F834
:10130000390099460D46012801D0122858D12DB335
:1013100022B394F83800012852D0012684F83860AE
:101320000027E76394F8390012281AD05FF02200F2
:1013300084F83900A285E2854FF48058E08D4B4651
:10134000401EE085A0684FF0000240454FF02001AC
:10135000204616D103F0C6FBB0B904E00120BDE879
:10136000F0873220E4E7206900282068406803D035
:10137000C1B225F8011B12E0C0F3080125F8021BD9
:101380000DE003F0AFFB08B10320E8E72069002877
:101390002068406801D000F07F0005F8010BE08D67
:1013A0000028CBD194F83900322805D084F8396070
:1013B00084F838700020D2E7122084F83900F7E76B
:1013C0000220CCE72DE9F047044690F83900994611
:1013D0000D46012801D0222858D12DB322B394F80C
:1013E0003800012852D0012684F838600027E763CE
:1013F00094F8390022281AD05FF0120084F83900DE
:10140000A284E2844FF48058E08C4B46401EE08476
:10141000A0684FF0000240454FF08001204613D1F4
:1014200003F060FB08BB04E00120BDE8F087322038
:10143000E4E728882168C0F308004860206908B103
:101440006D1C08E0AD1C06E003F04CFB68B9216898
:1014500015F8010B4860E08C0028D5D14B460022DE
:101460004021204603F03EFB08B10320DDE794F85D
:101470003900322806D084F8396000BF84F838700B
:101480000020D2E7222084F83900F7E70220CCE7D9
:10149000FEE700002DE9F041164C064620886588DD
:1014A0004543A088A0F5D041043902D1A079012894
:1014B0000ED00021084603F06DF800BF03F00AF9D2
:1014C000002D03D00C4806806D1EFCD1BDE8F081D4
:1014D0000020A0714FF02A08A4F80A802B27A781CA
:1014E000014603F057F80120A0716781A4F80C8031
:1014F000E4E70000B80000200008006C2DE9F04F80
:101500004A492A242B25898845F2105A4FF4305B2A
:101510004FF4285E4FF448764FF0F00C49F2413911
:101520004FF4A07345F210374FF4F07280B13F488A
:101530004FF00108494580F806800380A0F802C0FA
:1015400001D0B9423ED12C2606814481858157E0E5
:1015500036484FF00008494580F80680A0F800C0E2
:10156000438006D0A1F5D04CBCF1040C01D0B942A7
:101570000CD12C2606814481A1F5D0448581043C00
:1015800001D0B94244D10380428041E0514507D1A6
:10159000A0F808B0A0F80AE04FF42C5181810EE0C9
:1015A000A1F5C853633B06D022210181202141814E
:1015B000212181812CE02C210181458184810280BF
:1015C000468025E0A1F5D04CBCF1040C09D0514572
:1015D0000BD1A0F808B0A0F80AE04FF42C54848195
:1015E00021E02C260681458109E0A1F5C85CBCF10B
:1015F000630C12D02224048121244481202484817C
:10160000A1F5D044043C01D0B94201D1028043800D
:10161000BDE8F04F002002F0E9BE4FF02C0CA0F81E
:1016200008C04481858106804280E9E7B800002037
:101630002DE9F05F3220FEF7CEFFFF4D0020A8809D
:1016400002F0AAFEFD4CA88049F2413746F6040993
:1016500045F2103A45F210564FF6FF78FF2804D3B2
:10166000404502D0B0F5134F70D1D320208002F056
:1016700089FEA88002F086FEA88002F083FE08EAB8
:1016800000204146A88002F07DFEAA881043A88071
:10169000B8425BD0BF20208002F074FEA88002F028
:1016A00071FEA88002F06EFEA88002F06BFE01EAD7
:1016B0000020A88002F066FEAA881043A880484552
:1016C00044D0D420208002F05DFEA88002F05AFEB3
:1016D000A88002F057FE01EA0020A88002F052FE26
:1016E000AA881043A880504530D04FF45A4020803B
:1016F00002F048FEA8804FF45B40208002F042FEDA
:1017000001EA0020A8804FF45C40208002F03AFEFD
:10171000AA881043A880B0F5004F7DD0B04215D004
:10172000A120208002F02EFEA88002F02BFE01EA0C
:101730000020A88002F026FEA9880843A0F5AE414B
:10174000A880613902D141F66310A880A988BCA0A5
:1017500003F014FAA888B94DAD1CB8427ED1CF2051
:10176000208000202880C120288030202880ED2083
:101770002080642028800320288012202880812057
:101780002880E820208085202880102028807A204A
:101790002880CB202080392028802C202880002001
:1017A00028803420288002202880F72020802020D4
:1017B0002880EA202080002028802880C0202080E7
:1017C0001B202880C120208001202880C520208067
:1017D000302028802880C7202080B720288036200D
:1017E0002080482028803A20208055202880B12061
:1017F0002080002028801A202880B62020800A20FF
:101800002880A2202880F220208000202880262006
:1018100020800120288000E051E0E02020800F207F
:1018200028802A20288028202880082028800E2030
:1018300028800820288054202880A9202880432040
:1018400028800A2028800F202880002028802880D7
:1018500028802880E1202080002000E031E02880DE
:101860001520288017202880072028801120288014
:10187000062028802B202880562028803C20288085
:1018800005202880102028800F2028803F202880D5
:1018900028800F2028802B2020800020288028806E
:1018A000012028803F2028802A20208000202880B6
:1018B00028802880EF202880112020806EE0AE80D4
:1018C00044E7484571D1112020801420FEF783FEA3
:1018D000D020208007202880422028801D202880BA
:1018E000D1202080002028801A20288009202880EC
:1018F000D22020800120288022202880C020208023
:10190000102028803B20288000202880022028806A
:1019100011202880C520208003202880C820208016
:10192000002028802520288021202880052028804C
:10193000002028800A2028806520288025202880F3
:1019400077202880502028800F20288000202880A1
:10195000F820208001202880FE2020800020288080
:101960000220288020202080362020800820288007
:101970003A202080552028802B202080002028809D
:101980002880012028803F2028802A2020800020D5
:101990002880288001202880DF2028807820FEF7FA
:1019A0001AFE292001F03BBCFFE750457ED1ED2017
:1019B000208001202880FE202880EE202080DE204C
:1019C000288021202880F120208001202880DF200D
:1019D000208010202880C42020808F202880C620CE
:1019E000208000202880E220288028802880BF20B6
:1019F0002080AA202880B02020800D202880002070
:101A000028800D2028800020288011202880002098
:101A1000288019202880002028802120288000206C
:101A200028802D202880002028803D20288000202C
:101A300028805D2028800BE0B8000020FE07006CA5
:101A4000204C43442049443A25780D0A0000000008
:101A5000002028805D20288000202880B120208060
:101A600080202880002028808B202880002028804B
:101A70009620288000202880B22020800020288006
:101A80002880022028800020288003202880002031
:101A90002880B3202080002028802880288028806B
:101AA0002880288028802880288000E0FEE3288085
:101AB00028802880288028802880288028802880E6
:101AC000288028802880288028802880B4202080B2
:101AD0008B202880002028809620288000202880C5
:101AE000A120288000202880B52020800220288086
:101AF00000202880032028800020288004202880BF
:101B000000202880B6202080002028802880B72050
:101B100020800020288028803F20288000202880E6
:101B20005E202880002028806420288000202880D3
:101B30008C20288000202880AC202880002028804D
:101B4000DC20288000202880702028800020288029
:101B50009020288000202880EB20288000202880EA
:101B6000DC20288000202880B820208000202880C9
:101B70002880288028802880288028802880BA20F3
:101B80002080242028800020288028802880C120D0
:101B900020802020288000202880542028800020B9
:101BA0002880FF20288000202880C22020800A2052
:101BB0002880002028800420288000202880C3203E
:101BC00020803C202880002028803A202880002087
:101BD0002880392028800020288037202880002075
:101BE00028803C2028800020288036202880002063
:101BF000288032202880002028802F202880002064
:101C000028802C202880002028802920288000205F
:101C1000288026202880002028802420288000205A
:101C2000288024202880002028802320288000204D
:101C300028803C2028800020288036202880002012
:101C4000288032202880002028802F202880002013
:101C500028802C202880002028802920288000200F
:101C6000288026202880002028802420288000200A
:101C700028802420288000202880232028800020FD
:101C80002880C42020806220288000202880052011
:101C90002880002028808420288000202880F020B0
:101CA0002880002028801820288000202880A42058
:101CB000288000202880182028800020288050209C
:101CC0002880002028800C202880002028801720D1
:101CD0002880002028809520288000202880F3205C
:101CE000288000202880E620288000202880C52029
:101CF0002080322028800020288044202880002056
:101D000028806520288000202880762028800020D8
:101D100028808820288000202880C620208020203D
:101D2000288000202880172028800020288001207B
:101D3000288000202880C72020800020288028803C
:101D400028802880C82020800020288028802880A3
:101D50002880C92020800020288028802880288092
:101D60002880288028802880288028802880288033
:101D70002880288028802880E02020801620288045
:101D8000002028801C2028800020288021202880F6
:101D900000202880362028800020288046202880A7
:101DA000002028805220288000202880642028805D
:101DB000002028807A202880002028808B202880FE
:101DC000002028809920288000202880A8202880B2
:101DD00000202880B920288000202880C420288066
:101DE00000202880CA20288000202880D220288037
:101DF00000202880D920288000202880E02028800A
:101E000000202880F320288000202880E1202080E6
:101E100016202880002028801C2028800020288070
:101E2000222028800020288036202880002028803A
:101E300045202880002028805220288000202880EB
:101E400064202880002028807A2028800020288094
:101E50008B2028800020288099202880002028803E
:101E6000A820288000202880B920288000202880F1
:101E7000C420288000202880CA20288000202880B4
:101E8000D220288000202880D82028800020288088
:101E9000E020288000202880F3202880002028804F
:101EA000E220208005202880002028800B20288028
:101EB000002028801B2028800020288034202880B3
:101EC0000020288044202880002028804F2028805F
:101ED0000020288061202880002028807920288008
:101EE00000202880882028800020288097202880B3
:101EF00000202880A620288000202880B720288065
:101F000000202880C220288000202880C720288028
:101F100000202880D120288000202880D6202880FA
:101F200000202880DD20288000202880F3202880C1
:101F300000202880E32020800520288000202880A1
:101F40000A202880002028801C202880002028804B
:101F500033202880002028804420288000202880EA
:101F6000502028800020288062202880002028809F
:101F70007820288000202880882028800020288041
:101F80009720288000202880A620288000202880F4
:101F9000B720288000202880C220288000202880A8
:101FA000C720288000202880D12028800020288079
:101FB000D520288000202880DD202880002028804F
:101FC000F320288000202880E42020800120288021
:101FD00000202880012028800020288002202880DE
:101FE000002028802A202880002028803C2028806B
:101FF000002028804B202880002028805D20288019
:1020000000202880742028800020288084202880B8
:10201000002028809320288000202880A22028806B
:1020200000202880B320288000202880BE2028801F
:1020300000202880C420288000202880CD202880EF
:1020400000202880D320288000202880DD202880C0
:1020500000202880F320288000202880E520208090
:1020600000202880288028802880022028800020C6
:10207000288029202880002028803C2028800020DB
:1020800028804B202880002028805D202880002088
:102090002880742028800020288084202880002028
:1020A00028809320288000202880A22028800020DB
:1020B0002880B320288000202880BE20288000208F
:1020C0002880C420288000202880CD20288000205F
:1020D0002880D320288000202880DC202880002031
:1020E0002880F320288000202880E62020801120EE
:1020F0002880002028803420288000202880562036
:1021000028800020288076202880002028807720C2
:1021100028800020288066202880002028808820B1
:102120002880002028809920288000202880BB203B
:102130002880002028809920288000202880662080
:1021400028800020288055202880002028805520C5
:1021500028800020288045202880002028804320D7
:102160002880002028804420288000202880E72024
:1021700020803220288000202880552028800020C0
:102180002880762028800020288066202880002053
:102190002880672028800020288067202880002051
:1021A00028808720288000202880992028800020EF
:1021B0002880BB20288000202880992028800020AB
:1021C0002880772028800020288044202880002034
:1021D0002880562028800020288023202880002066
:1021E0002880332028800020288045202880002057
:1021F0002880E820208000202880288099202880BE
:10220000002028808720288000202880882028809F
:1022100000202880772028800020288066202880C1
:10222000002028808820288000202880AA2028805C
:1022300000202880BB20288000202880992028802A
:1022400000202880662028800020288055202880B3
:1022500000202880552028800020288044202880C5
:1022600000202880442028800020288055202880B5
:1022700000202880E9202080AA20288000202880B3
:10228000288028802080AA202880CF20208000203D
:1022900028802880288028802880288028802880FE
:1022A0002880288028802880288000E038E0288046
:1022B000288028802880F02020800020288050203E
:1022C00028800020288028802880F320208000207B
:1022D0002880F920208006202880102028802920AE
:1022E0002880002028803A20208055202880112036
:1022F00020806420FEF76FF929202080352020807F
:102300000020288051202080FF202880532020801A
:102310002C20288055202080822028802C20FCE33F
:10232000B0427DD14FF470435521184602F0DCF9DC
:102330004FF20105AA21284602F0D6F96E1C52215F
:10234000304602F0D1F9AF1C0821384602F0CCF932
:102350004FF204090121484602F0C6F90D214FF45D
:10236000304002F0C1F90D214BF2010002F0BCF93E
:102370000D214BF2020002F0B7F94FF4364A342136
:10238000504602F0B1F934214BF2016002F0ACF991
:1023900034214BF2026002F0A7F94FF4314B0D21CA
:1023A000584602F0A1F90D214BF2011002F09CF900
:1023B0000D214BF2021002F097F934214FF437400F
:1023C00002F092F934214BF2017002F08DF93421C0
:1023D0004BF2027002F088F900214FF4324002F013
:1023E00083F900214BF2012002F07EF900214BF22B
:1023F000022002F079F924214FF4384002F074F9F8
:1024000024214BF6010002F06FF924214BF6020063
:1024100002F06AF901214FF43F4002F065F900E053
:10242000FEE30F214FF4334002F05EF90F214BF22F
:10243000013002F059F90F214BF2023002F054F949
:1024400034214FF4394002F04FF934214BF601109A
:1024500002F04AF934214BF6021002F045F9082146
:102460004FF4354002F040F908214BF2015002F0E0
:102470003BF908214BF2025002F036F903214FF4E8
:10248000424002F031F924214FF43A4002F02CF995
:1024900024214BF6012002F027F924214BF60220DB
:1024A00002F022F900214FF43C4002F01DF978219E
:1024B0004BF6014002F018F900214BF6024002F001
:1024C00013F900214FF43D4002F00EF978214BF64C
:1024D000015002F009F900214BF6025002F004F914
:1024E00000214FF43E4002F0FFF864214BF60160FA
:1024F00002F0FAF800214FF4514002F0F5F83321D0
:102500004DF2011002F0F0F800214DF2021002F03D
:10251000EBF834214DF2031002F0E6F800214DF201
:10252000041002F0E1F83A214DF2051002F0DCF857
:1025300000214DF2061002F0D7F84A214DF20710A3
:1025400002F0D2F800214DF2081002F0CDF85C2123
:102550004DF2091002F0C8F800214DF20A1002F005
:10256000C3F881214DF20B1002F0BEF800214DF2AC
:102570000C1002F0B9F8A6214DF20D1002F0B4F8DB
:1025800000214DF20E1002F0AFF8E5214DF20F10D0
:1025900002F0AAF801214DF2101002F0A5F8132163
:1025A0004DF2111002F0A0F801214DF2121002F0CC
:1025B0009BF854214DF2131002F096F801214DF2D0
:1025C000141002F091F882214DF2151002F08CF8EF
:1025D00001214DF2161002F087F8CA214DF21710B2
:1025E00002F082F802214DF2181002F07DF800216D
:1025F0004DF2191002F078F802214DF21A1002F093
:1026000073F801214DF21B1002F06EF802214DF219
:102610001C1002F069F834214DF21D1002F064F82C
:1026200002214DF21E1002F05FF867214DF21F10DB
:1026300002F05AF802214DF2201002F055F88421E0
:102640004DF2211002F050F802214DF2221002F05A
:102650004BF8A4214DF2231002F046F802214DF26E
:10266000241002F041F8B7214DF2251002F03CF899
:1026700002214DF2261002F037F8CF214DF227103B
:1026800002F032F802214DF2281002F02DF8DE217E
:102690004DF2291002F028F802214DF22A1002F022
:1026A00023F8F2214DF22B1002F01EF802214DF218
:1026B0002C1002F019F8FE214DF22D1002F014F842
:1026C00003214DF22E1002F00FF810214DF22F10C1
:1026D00002F00AF803214DF2301002F005F8332120
:1026E0004DF2311002F000F803214DF2321001F0EA
:1026F000FBFF6D214DF2331001F0F6FF00214FF486
:10270000524001F0F1FF33214DF2012001F0ECFFC6
:1027100000214DF2022001F0E7FF34214DF20320A9
:1027200001F0E2FF00214DF2042001F0DDFF3A212B
:102730004DF2052001F0D8FF00214DF2062001F0F6
:10274000D3FF4A214DF2072001F0CEFF00214DF2C8
:10275000082001F0C9FF5C214DF2092001F0C4FFFF
:1027600000214DF20A2001F0BFFF81214DF20B2024
:1027700001F0BAFF00214DF20C2001F0B5FFA621B7
:102780004DF20D2001F0B0FF00214DF20E2001F0BE
:10279000ABFFE5214DF20F2001F0A6FF01214DF224
:1027A000102001F0A1FF13214DF2112001F09CFF38
:1027B00001214DF2122001F097FF54214DF2132018
:1027C00001F092FF01214DF2142001F08DFF8221D2
:1027D0004DF2152001F088FF01214DF2162001F085
:1027E00083FFCA214DF2172001F07EFF02214DF236
:1027F000182001F079FF00214DF2192001F074FF3B
:1028000002214DF21A2001F06FFF01214DF21B2031
:1028100001F06AFF02214DF21C2001F065FF342116
:102820004DF21D2001F060FF02214DF21E2001F04B
:102830005BFF67214DF21F2001F056FF02214DF290
:10284000202001F051FF84214DF2212001F04CFFA6
:1028500002214DF2222001F047FFA4214DF2232056
:1028600001F042FF02214DF2242001F03DFFB7218B
:102870004DF2252001F038FF02214DF2262001F013
:1028800033FFCF214DF2272001F02EFF02214DF220
:10289000282001F029FFDE214DF2292001F024FF3C
:1028A00002214DF22A2001F01FFFF2214DF22B20D0
:1028B00001F01AFF02214DF22C2001F015FFFE213C
:1028C0004DF22D2001F010FF03214DF22E2001F0DA
:1028D0000BFF10214DF22F2001F006FF03214DF2D6
:1028E000302001F001FF33214DF2312001F0FCFED8
:1028F00003214DF2322001F0F7FE6D214DF233201D
:1029000001F0F2FE00214FF4534001F0EDFE3321BF
:102910004DF2013001F0E8FE00214DF2023001F0ED
:10292000E3FE34214DF2033001F0DEFE00214DF2D2
:10293000043001F0D9FE3A214DF2053001F0D4FE09
:1029400000214DF2063001F0CFFE4A214DF2073052
:1029500001F0CAFE00214DF2083001F0C5FE5C21F5
:102960004DF2093001F0C0FE00214DF20A3001F0B5
:10297000BBFE81214DF20B3001F0B6FE00214DF27D
:102980000C3001F0B1FEA6214DF20D3001F0ACFE8D
:1029900000214DF20E3001F0A7FEE5214DF20F307F
:1029A00001F0A2FE01214DF2103001F09DFE132135
:1029B0004DF2113001F098FE01214DF2123001F07C
:1029C00093FE54214DF2133001F08EFE01214DF2A1
:1029D000143001F089FE82214DF2153001F084FEA1
:1029E00001214DF2163001F07FFECA214DF2173061
:1029F00001F07AFE02214DF2183001F075FE00213F
:102A00004DF2193001F070FE02214DF21A3001F042
:102A10006BFE01214DF21B3001F066FE02214DF2EA
:102A20001C3001F061FE34214DF21D3001F05CFEDE
:102A300002214DF21E3001F057FE67214DF21F308A
:102A400001F052FE02214DF2203001F04DFE8421B2
:102A50004DF2213001F048FE02214DF2223001F00A
:102A600043FEA4214DF2233001F03EFE02214DF23F
:102A7000243001F039FEB7214DF2253001F034FE4B
:102A800002214DF2263001F02FFECF214DF22730EA
:102A900001F02AFE02214DF2283001F025FEDE2150
:102AA0004DF2293001F020FE02214DF22A3001F0D2
:102AB0001BFEF2214DF22B3001F016FE02214DF2E9
:102AC0002C3001F011FEFE214DF22D3001F00CFEF4
:102AD00003214DF22E3001F007FE10214DF22F3070
:102AE00001F002FE03214DF2303001F0FDFD3321F3
:102AF0004DF2313001F0F8FD03214DF2323001F09A
:102B0000F3FD6D214DF2333001F0EEFD00214FF465
:102B1000544001F0E9FD332100E080E34DF2014033
:102B200001F0E2FD00214DF2024001F0DDFD342113
:102B30004DF2034001F0D8FD00214DF2044001F0B8
:102B4000D3FD3A214DF2054001F0CEFD00214DF2BA
:102B5000064001F0C9FD4A214DF2074001F0C4FDD5
:102B600000214DF2084001F0BFFD5C214DF209400B
:102B700001F0BAFD00214DF20A4001F0B5FD8121BE
:102B80004DF20B4001F0B0FD00214DF20C4001F080
:102B9000ABFDA6214DF20D4001F0A6FD00214DF246
:102BA0000E4001F0A1FDE5214DF20F4001F09CFD2A
:102BB00001214DF2104001F097FD13214DF211401B
:102BC00001F092FD01214DF2124001F08DFD5421E2
:102BD0004DF2134001F088FD01214DF2144001F047
:102BE00083FD82214DF2154001F07EFD01214DF261
:102BF000164001F079FDCA214DF2174001F074FD35
:102C000002214DF2184001F06FFD00214DF21940F4
:102C100001F06AFD02214DF21A4001F065FD00E06D
:102C2000FFE201214DF21B4001F05EFD02214DF259
:102C30001C4001F059FD34214DF21D4001F054FDBE
:102C400002214DF21E4001F04FFD67214DF21F4061
:102C500001F04AFD02214DF2204001F045FD8421A2
:102C60004DF2214001F040FD02214DF2224001F0E1
:102C70003BFDA4214DF2234001F036FD02214DF22F
:102C8000244001F031FDB7214DF2254001F02CFD2B
:102C900002214DF2264001F027FDCF214DF22740C1
:102CA00001F022FD02214DF2284001F01DFDDE2140
:102CB0004DF2294001F018FD02214DF22A4001F0A9
:102CC00013FDF2214DF22B4001F00EFD02214DF2D9
:102CD0002C4001F009FDFE214DF22D4001F004FDD4
:102CE00003214DF22E4001F0FFFC10214DF22F4048
:102CF00001F0FAFC03214DF2304001F0F5FC3321E4
:102D00004DF2314001F0F0FC03214DF2324001F070
:102D1000EBFC6D214DF2334001F0E6FC00214FF455
:102D2000554001F0E1FC33214DF2015001F0DCFC93
:102D300000214DF2025001F0D7FC34214DF2035036
:102D400001F0D2FC00214DF2045001F0CDFC3A21FB
:102D50004DF2055001F0C8FC00214DF2065001F083
:102D6000C3FC4A214DF2075001F0BEFC00214DF298
:102D7000085001F0B9FC5C214DF2095001F0B4FC9F
:102D800000214DF20A5001F0AFFC81214DF20B50B1
:102D900001F0AAFC00214DF20C5001F0A5FCA62187
:102DA0004DF20D5001F0A0FC00214DF20E5001F04B
:102DB0009BFCE5214DF20F5001F096FC01214DF2F4
:102DC000105001F091FC13214DF2115001F08CFCD8
:102DD00001214DF2125001F087FC54214DF21350A5
:102DE00001F082FC01214DF2145001F07DFC8221A2
:102DF0004DF2155001F078FC01214DF2165001F012
:102E000073FCCA214DF2175001F06EFC02214DF205
:102E1000185001F069FC00214DF2195001F064FCDA
:102E200002214DF21A5001F05FFC01214DF21B50BE
:102E300001F05AFC02214DF21C5001F055FC3421E6
:102E40004DF21D5001F050FC02214DF21E5001F0D8
:102E50004BFC67214DF21F5001F046FC02214DF260
:102E6000205001F041FC84214DF2215001F03CFC46
:102E700002214DF2225001F037FCA4214DF22350E3
:102E800001F032FC02214DF2245001F02DFCB7215B
:102E90004DF2255001F028FC02214DF2265001F0A0
:102EA00023FCCF214DF2275001F01EFC02214DF2F0
:102EB000285001F019FCDE214DF2295001F014FCDC
:102EC00002214DF22A5001F00FFCF2214DF22B505D
:102ED00001F00AFC02214DF22C5001F005FCFE210C
:102EE0004DF22D5001F000FC03214DF22E5001F067
:102EF000FBFB10214DF22F5001F0F6FB03214DF2A8
:102F0000305001F0F1FB33214DF2315001F0ECFB78
:102F100003214DF2325001F0E7FB6D214DF23350A9
:102F200001F0E2FB00214FF4564001F0DDFB3321BC
:102F30004DF2016001F0D8FB00214DF2026001F07A
:102F4000D3FB34214DF2036001F0CEFB00214DF2A2
:102F5000046001F0C9FB3A214DF2056001F0C4FBA9
:102F600000214DF2066001F0BFFB4A214DF20760DF
:102F700001F0BAFB00214DF2086001F0B5FB5C21C5
:102F80004DF2096001F0B0FB00214DF20A6001F042
:102F9000ABFB81214DF20B6001F0A6FB00214DF24D
:102FA0000C6001F0A1FBA6214DF20D6001F09CFB2D
:102FB00000214DF20E6001F097FBE5214DF20F600C
:102FC00001F092FB01214DF2106001F08DFB132105
:102FD0004DF2116001F088FB01214DF2126001F009
:102FE00083FB54214DF2136001F07EFB01214DF271
:102FF000146001F079FB82214DF2156001F074FB41
:1030000001214DF2166001F06FFBCA214DF21760ED
:1030100001F06AFB02214DF2186001F065FB00210E
:103020004DF2196001F060FB02214DF21A6001F0CF
:103030005BFB01214DF21B6001F056FB02214DF2BA
:103040001C6001F051FB34214DF21D6001F04CFB7E
:1030500002214DF21E6001F047FB67214DF21F6017
:1030600001F042FB02214DF2206001F03DFB842182
:103070004DF2216001F038FB02214DF2226001F097
:1030800033FBA4214DF2236001F02EFB02214DF20F
:10309000246001F029FBB7214DF2256001F024FBEB
:1030A00002214DF2266001F01FFBCF214DF2276077
:1030B00001F01AFB02214DF2286001F015FBDE2120
:1030C0004DF2296001F010FB02214DF22A6001F05F
:1030D0000BFBF2214DF22B6001F006FB02214DF2B9
:1030E0002C6001F001FBFE214DF22D6001F0FCFA95
:1030F00003214DF22E6001F0F7FA10214DF22F60FE
:1031000001F0F2FA03214DF2306001F0EDFA3321C3
:103110004DF2316001F0E8FA03214DF2326001F026
:10312000E3FA6D214DF2336001F0DEFA55211846C5
:1031300001F0DAFAAA21284601F0D6FA52213046E7
:1031400001F0D2FA0821384601F0CEFA00214846B3
:1031500001F0CAFACC21584601F0C6FA00214BF220
:10316000011001F0C1FA0521504601F0BDFA7021AD
:103170004FF4374001F0B8FA70214BF2017001F0C2
:10318000B3FA01214FF4384001F0AEFA03214BF6B7
:10319000010001F0A9FA03214BF6020001F0A4FAA4
:1031A00003214BF6030001F09FFA02214FF43C404B
:1031B00001F09AFA00214BF6014001F095FA002146
:1031C0004BF6024001F090FAD0214FF4494001F053
:1031D0008BFA02214CF6011001F086FA50214CF6D0
:1031E000021001F081FA50214CF6031001F07CFA34
:1031F00050214CF6041001F077FA00214FF454509E
:1032000001F072FA55214FF4685001F06DFA4FF455
:10321000885020807820FDF7DEF94FF4245020807C
:10322000FEE3A0F513414FF480764FF4E06A40F2DC
:10323000022B4FF4274925392ED0A0F5134140F237
:10324000077728397ED0A0F513414FF488792039CB
:1032500079D0A0F51341313976D0A0F5A8410839CD
:1032600073D0A0F5A8514FF4407905396ED0A0F580
:10327000354105396BD0A0F54541053968D0A0F539
:103280008A4131397ED0A0F58A4135397BD0A0F50D
:10329000C851633978D0C3E747F6F001E52001F063
:1032A00023FA3146012001F01FFA5146022001F0B5
:1032B0001BFA41F23001032001F016FA002104202C
:1032C00001F012FA5946082001F00EFA00210920F7
:1032D00001F00AFA00210A2001F006FA00210C2070
:1032E00001F002FA00210D2001F0FEF900210F206B
:1032F00001F0FAF90021102001F0F6F90721112060
:1033000001F0F2F90021122001F0EEF90021132062
:1033100001F0EAF90021072001F0E6F941F290619D
:10332000102001F0E1F940F22721112001F0DCF931
:103330009D21122001F0D8F94FF4C851132001F05B
:10334000D3F906E080E03CE1E1E1B7E253E3FDE3DD
:10335000FDE32521292001F0C7F90D212B2001F0E3
:10336000C3F90721302001F0BFF940F203313120C9
:1033700001F0BAF90321322001F0B6F940F206213A
:10338000352002E0FEE3FEE3FEE301F0ADF90821A3
:10339000362001F0A9F940F20641372001F0A4F9E6
:1033A0004FF44171382001F09FF90721392001F0D5
:1033B0009BF940F202613C2001F096F908213D2082
:1033C00001F092F90021502001F08EF9EF215120F7
:1033D00001F08AF90021522001F086F940F23F11F4
:1033E000532001F081F94946602001F07DF9012167
:1033F000612001F079F900216A2001F075F90021BE
:10340000802001F071F90021812001F06DF9002187
:10341000822001F069F90021832001F065F9002183
:10342000842001F061F90021852001F05DF910216F
:10343000902001F059F94FF4C061922001F054F945
:1034400040F233110720FDE341F28F01EC2001F03F
:103450004BF941F23421EF2001F046F931460120C9
:1034600001F042F95146022001F03EF941F23001EB
:10347000032001F039F90021042001F035F9594603
:10348000082001F031F90021092001F02DF9002177
:103490000A2001F029F901210C2001F025F9002171
:1034A0000D2001F021F900210F2001F01DF900216C
:1034B000102001F019F90721112001F015F9002160
:1034C000122001F011F90021132001F00DF9012162
:1034D000072001F009F93220FDF77DF841F2904113
:1034E000102001F001F940F22721112001F0FCF831
:1034F0003220FDF770F88A21122001F0F5F8322011
:10350000FDF769F84FF4D051132001F0EDF80621D2
:10351000292001F0E9F80D212B2001F0E5F83220F7
:10352000FDF759F80021202001F0DEF800212120CC
:1035300001F0DAF83220FDF74EF80021302001F0DA
:10354000D3F840F20461312001F0CEF840F20531A9
:10355000322001F0C9F80021352001F0C5F840F60D
:103560000941362001F0C0F84FF40171372001F015
:10357000BBF840F20131382001F0B6F83946392065
:1035800001F0B2F800213C2001F0AEF840F60A212B
:103590003D2001F0A9F83220FDF71DF80021502050
:1035A00001F0A2F8EF21512001F09EF800215220F5
:1035B00001F09AF840F23F11532001F095F8494686
:1035C00051E10021084601F08FF83146012001F059
:1035D0008BF85146022001F087F841F230010320B8
:1035E00001F082F80021042001F07EF859460820FD
:1035F00001F07AF80021092001F076F800210A2074
:1036000001F072F801210C2001F06EF800210D206C
:1036100001F06AF800210F2001F066F83220FCF773
:10362000DAFF40F20111072001F05EF83220FCF7CA
:10363000D2FF4FF48651102001F056F807211120D7
:1036400001F052F84B464946122001F04DF84FF474
:103650003061132001F048F80021292001F044F8DE
:1036600044F210012B2001F03FF80021502001F01E
:103670003BF8EF21512001F037F80021522001F0F2
:1036800033F840F23F11532001F02EF84FF41C5153
:10369000602001F029F80121612001F025F80021C6
:1036A0006A2001F021F80021802001F01DF800219E
:1036B000812001F019F80021822001F015F8002185
:1036C000832001F011F80021842001F00DF8002181
:1036D000852001F009F81021902001F005F8002163
:1036E000922001F001F80121932000F0FDFF19461E
:1036F000952000F0F9FF0021972000F0F5FF002150
:10370000982000F0F1FF40F27311072086E341F2A8
:103710001401E72000F0E8FF3146012000F0E4FF4B
:103720004FF40071022000F0DFFF41F23801032066
:1037300000F0DAFF5946082000F0D6FF00210920EA
:1037400000F0D2FF00210A2000F0CEFF00210C2063
:1037500000F0CAFF00210D2000F0C6FF00210F205D
:1037600000F0C2FF0021102000F0BEFF0721112051
:1037700000F0BAFF0021122000F0B6FF0021132054
:1037800000F0B2FFC820FCF726FF41F29061102044
:1037900000F0AAFF40F22721112000F0A5FF3220FF
:1037A000FCF719FF0C21122000F09EFF3220FCF7DD
:1037B00012FF4FF40061132000F096FF1121292021
:1037C00000F092FF0B212B2000F08EFF3220FCF73F
:1037D00002FF0021202000F087FF40F23F1319462E
:1037E000212000F081FF0021302000F07DFF4FF408
:1037F00083742146312000F077FF0021322000F051
:1038000073FF4FF40171352000F06EFF41F20A6141
:10381000362000F069FF3946372000F065FF214669
:10382000382000F061FF3946392000F05DFF40F29A
:1038300002413C2000F058FF40F60F413D2000F0CF
:1038400053FF0021502000F04FFFEF21512000F0E6
:103850004BFF0021522000F047FF1946532000F093
:1038600043FF4FF41C51602000F03EFF0121612016
:1038700000F03AFF00216A2000F036FF002180208E
:1038800000F032FF0021812000F02EFF0021822075
:1038900000F02AFF0021832000F026FF0021842071
:1038A00000F022FF0021852000F01EFF1021902053
:1038B00000F01AFF4FF4C0619220FDE33146012071
:1038C00000F012FF5146022000F00EFF41F23001DD
:1038D000032000F009FF0021042000F005FF40F262
:1038E0000721082000F000FF0021092000F0FCFE65
:1038F00000210A2000F0F8FE00210C2000F0F4FE68
:1039000000210D2000F0F0FE00210F2000F0ECFE61
:103910001420FCF760FE41F2B061102000F0E4FEDC
:103920000121112000F0E0FE0121172000F0DCFE53
:103930004FF49C71122000F0D7FE4FF40061132069
:1039400000F0D2FE0921292000F0CEFE09212A2014
:1039500000F0CAFE0021A42000F0C6FE0021502085
:1039600000F0C2FEEF21512000F0BEFE00215220E7
:1039700000F0BAFE40F23F11532000F0B5FE4FF4C4
:103980001C51602000F0B0FE0121612000F0ACFE6F
:1039900000216A2000F0A8FE0021802000F0A4FE93
:1039A0000021812000F0A0FE0021822000F09CFE7A
:1039B0000021832000F098FE0021842000F094FE76
:1039C0000021852000F090FE1321902000F08CFE55
:1039D0000021922000F088FE0321932000F084FE55
:1039E0004946952000F080FE40F27311072000F058
:1039F0007BFE322011E10021072000F075FE32200D
:103A0000FCF7E9FD4FF48E71122000F06DFE0121EC
:103A1000A42000F069FE0F21082000F065FE00E000
:103A20007DE308210A2000F05FFE08210D2000F050
:103A30005BFE3946302000F057FE0721312000F0B0
:103A400053FE40F20361322000F04EFE54465146D0
:103A5000332000F049FE5946342000F045FE022193
:103A6000352000F041FE41F60F71362000F03CFE9B
:103A70003946372000F038FE0021382000F034FEAF
:103A80000021392000F030FE39463A2000F02CFEAB
:103A900000213B2000F028FE07213C2000F024FEFE
:103AA00000213D2000F020FE3220FCF794FD012192
:103AB000072000F019FE0121172000F015FE32202A
:103AC000FCF789FD4FF4BD51102000F00DFE40F2CF
:103AD0001721112000F008FE4FF48F71122000F022
:103AE00003FE4FF47061132000F0FEFD00212A2038
:103AF00000F0FAFD0A21292000F0F6FD4FF49F7135
:103B0000122000F0F1FD0021502000F0EDFDEF212A
:103B1000512000F0E9FD0021522000F0E5FD40F2C7
:103B20003F11532000F0E0FD4FF41C51602000F0E5
:103B3000DBFD0121612000F0D7FD00216A2000F0AB
:103B4000D3FD0021802000F0CFFD01E068E066E1B8
:103B50000021812000F0C8FD0021822000F0C4FD7A
:103B60000021832000F0C0FD0021842000F0BCFD76
:103B70000021852000F0B8FD1321902000F0B4FD55
:103B8000494602E015E2CBE272E3922000F0ACFD80
:103B90000521932000F0A8FD0021952000F0A4FD50
:103BA0000021972000F0A0FD0021982000F09CFD4E
:103BB0003146012000F098FD2146022000F094FDDE
:103BC00041F23801032000F08FFD0021042000F0B5
:103BD0008BFD00210C2000F087FD00210F2000F05C
:103BE00083FD0021202000F07FFD0021212000F036
:103BF0007BFD2121072000F077FD1420FCF7EBFC72
:103C00006121072000F070FD1420FCF7E4FC40F275
:103C10007311072000F068FD1420FCF7DCFCA1E321
:103C20000021084600F060FD0021084600F05CFD20
:103C30000021084600F058FD0021084600F054FD20
:103C4000012100E0E6E0A42000F04EFD1420FCF786
:103C5000C2FC4FF41C542146602000F045FD5D4637
:103C60005946082000F040FD4FF40571302000F067
:103C70003BFD43F21571312000F036FD40F2046146
:103C8000322000F031FD40F61661332000F02CFDAB
:103C900042F21121342000F027FD4FF4A8513520C5
:103CA00000F022FD48F20751362000F01DFD41F2E0
:103CB0000741372000F018FD41F20341382000F0A1
:103CC00013FD2021392000F00FFD1A21902000F073
:103CD0000BFD0021102000F007FD0721112000F04E
:103CE00003FD0021122000F0FFFC0021132000F052
:103CF000FBFC1420FCF76FFC4FF4E661102000F091
:103D0000F3FC40F23711112000F0EEFC1420FCF718
:103D100062FC4FF4DC71122000F0E6FC1420FCF78A
:103D20005AFC4FF47061132000F0DEFC80212A2041
:103D300000F0DAFC4821292000F0D6FC1420FCF722
:103D40004AFC3146012000F0CFFC5146022000F031
:103D5000CBFC41F23801032000F0C6FC29460820C4
:103D600000F0C2FC00210A2000F0BEFC00210C2063
:103D700000F0BAFC00210D2000F0B6FC30210E202E
:103D800000F0B2FC0021502000F0AEFCEF215120E9
:103D900000F0AAFC0021522000F0A6FC40F23F11E6
:103DA000532000F0A1FC2146602000F09DFC012181
:103DB000612000F099FC00216A2000F095FC11219F
:103DC000902000F091FC4FF4C061922000F08CFC38
:103DD00040F20241932000F087FC0221942000F081
:103DE00083FC1420FCF7F7FB0121072000F07CFC8A
:103DF0001420FCF7F0FB6121072000F075FC40F275
:103E00007311072000F070FC0021202000F06CFCF2
:103E10000021212000F068FC222100207DE100210A
:103E2000084600F061FC0021084600F05DFC14200B
:103E3000FCF7D1FB0021084600F056FC00210846A3
:103E400000F052FC0021084600F04EFC002108461C
:103E500000F04AFC0121A42000F046FC1420FCF7ED
:103E6000BAFB4FF41C51602000F03EFC40F6060106
:103E7000082000F039FC40F203731946302000F0AE
:103E800033FC0121312000F02FFC0421322000F00E
:103E90002BFC4FF48171332000F026FC4C46494640
:103EA000342000F021FC40F20311352000F01CFC0E
:103EB0001F21362000F018FC1946372000F014FCB2
:103EC0000121382000F010FC0421392000F00CFC06
:103ED0001521902000F008FC4FF48261102000F0C2
:103EE00003FC40F24721112000F0FEFB4FF4DE718D
:103EF000122000F0F9FB4FF46061132000F0F4FB96
:103F00007820FCF768FB3146012000F0EDFB4FF410
:103F10000071022000F0E8FB41F23001032000F0C4
:103F2000E3FB08210A2000F0DFFB00210C2000F059
:103F3000DBFB20210E2000F0D7FB00210F2000F03A
:103F4000D3FB0021202000F0CFFB0021212000F036
:103F5000CBFB3D212A2000F0C7FB1420FCF73BFBE4
:103F60002D21292000F0C0FB0021502000F0BCFBD7
:103F70004DF2EF01512000F0B7FB0021522000F07C
:103F8000B3FB40F23F11532000F0AEFB0021612053
:103F900000F0AAFB00216A2000F0A6FB2146922037
:103FA00000F0A2FB0521932000F09EFB3146FFF7B5
:103FB000ACBB0121002000F097FB0A20FCF70BFBB3
:103FC00041F22861102000F08FFB0E21122000F03A
:103FD0008BFB40F63921132000F086FB0A20FCF70A
:103FE000FAFA4021112000F07FFB5021152000F04B
:103FF0007BFB0A20FCF7EFFA1E21122000F074FB75
:104000000A20FCF7E8FA4FF4B151102000F06CFBE5
:1040100042F63921132000F067FB0A20FCF7DBFA97
:104020003146012000F060FB4946022000F05CFBB5
:1040300041F23801032000F057FB5946082000F0F8
:1040400053FB08210A2000F04FFB0021302000F034
:104050004BFB40F20241312000F046FB4FF48371EC
:10406000322000F041FB40F20351332000F03CFBD2
:104070004FF48271342000F037FB40F201313520DB
:1040800000F032FB3946362000F02EFB40F20531BD
:10409000372000F029FB4FF40271382000F024FB98
:1040A00040F60B71392000F01FFB0221412000F087
:1040B0001BFB4FF41C5100E0D5E0602000F014FB26
:1040C0000121612000F010FB4FF40471902000F0FA
:1040D0000BFB4FF48571922000F006FB0421932026
:1040E00000F002FB3146A02000F0FEFA012107207B
:1040F00000F0FAFA2121072000F0F6FA2321072028
:1041000000F0F2FA3321072000F0EEFA40F233110A
:10411000072000F0E9FA0021A02000F0E5FA21E1F3
:104120003021152000F0E0FA10219A2000F0DCFA8E
:104130002021112000F0D8FA43F22841102000F08D
:10414000D3FA0221122000F0CFFA41F238011320F5
:1041500000F0CAFA2820FCF73EFA1221084600F0C7
:10416000C3FA2820FCF737FA43F22041102000F070
:10417000BBFA43F23801132000F0B6FA4620FCF7F0
:104180002AFA0021302000F0AFFA40F2024131203B
:1041900000F0AAFA40F20731322000F0A5FA4FF4FD
:1041A0004171332000F0A0FA0421342000F09CFA81
:1041B00040F20141352000F097FA3946362000F0F0
:1041C00093FA40F20531372000F08EFA4FF4C263C3
:1041D0001946382000F088FA1946392000F084FA90
:1041E0003146012000F080FA4946022000F07CFAB6
:1041F00041F23001032000F077FA40F60801082070
:1042000000F072FA08210A2000F06EFA4FF41C51F7
:10421000602000F069FA0121612000F065FA4FF496
:104220009F71902000F060FA3146922000F05CFA15
:104230003146932000F058FA4FF44051A02000F08E
:1042400053FA1021A32000F04FFA0121072000F0BB
:104250004BFA2121072000F047FA2321072000F024
:1042600043FA3321072000F03FFA40F233119EE673
:10427000E22020801D202880022028800420288021
:104280006420FCF7A8F9E0202080012028800A2083
:10429000FCF7A1F9E0202080032028800C20FCF707
:1042A0009AF9012020800A20FCF795F9E620208069
:1042B0002F202880FF2028802880B02020802020E8
:1042C0002880002028800320288040F21F3028808A
:1042D0000120288040F2DF10288000202880B420B0
:1042E00020800420288040F21F4028800020288061
:1042F0002E20288000202880288028802880B62032
:104300002080022028804FF403702880002028801D
:104310001720288015202880002028802880F02061
:1043200020800320288029202080D0202080002089
:104330002880BE20208005202880FE2028800120A3
:1043400028800020288028802880B8202080032012
:10435000288001202880BA20208001202880642025
:1043600000F026F80020FDF7C9F8012211460448A4
:10437000FCF76EFA4046BDE8F05FFDF78BB8000031
:10438000000C0140034808B50088ADF80000BDF8F6
:10439000000008BD0008006C044910B50880052025
:1043A000FCF719F9BDE81040FFF7ECBFFE07006C01
:1043B0000C4A10B5BE211180941C05212180FBF709
:1043C00079FF4FF06632084BFBF702FFFBF77FFFE8
:1043D000208001202080FF2020800020208020805D
:1043E00010BD0000FE07006C66660440F0B5674C27
:1043F00000232146A679898846F6040241F6631512
:10440000012E01D02EB11DE091421BD0A94202D154
:1044100018E0A94216D1082814D2DFE800F00406FB
:10442000080A0C0E101206200CE007200AE00420F7
:1044300008E0052006E0012004E0002002E003205F
:1044400000E00220A1F5134C45F2103745F210565A
:10445000BCF1410C07D0914205D0B94203D0B14222
:1044600001D0A94275D1082812D2DFE800F011046A
:1044700006080A0C0E1080230AE0402308E0C0233F
:1044800006E0202304E0602302E0A02300E0E02314
:10449000B14202D14FF4585000E03620B94205D065
:1044A000B14203D0A94201D043F00803914201D1A7
:1044B00043F00203194600F017F9A088A8420AD079
:1044C00099062188628802D5914202D303E0914285
:1044D00001D9228061802E498A1CB04260890880FF
:1044E00021D100231380431C0B8000231380831CE5
:1044F0000B8023885B1E1D0A1580C01C0880D8B263
:104500001080A089088000231380431C0B800023A7
:104510001380831C0B8063885B1E1C0A1480C01CE4
:104520000880D8B212E00020108010802088401E41
:10453000030A1380C0B21080A08908800020108078
:1045400010806088401E010A1180C0B21080F0BD4A
:10455000FFE7082812D2DFE800F0040608110A0C71
:104560000E1030230AE0102308E0202306E0382351
:1045700004E0282302E0182300E00823BDE8F0400F
:10458000032043F4805100F0AFB80000B8000020D1
:10459000FE07006C2DE9F04F4C4E0C4601464FEAE9
:1045A000102C3046B588DFF828B18289230A40896B
:1045B000A5F513470BF1020A413F1CD0A5F5A6470C
:1045C000103F18D0B64696F806903688A5F5D04725
:1045D000A6EB0108A8F10108043F13D0A5F5C857C0
:1045E000633F23D0A5F5AA477646103F4ED0B9F1D8
:1045F000010F60D061E05D46ABF800005046AAF8BC
:1046000000C00BE0B9F1010F01D11FFA88F15D463E
:10461000ABF800000E0A5046AAF80060C9B201804B
:104620002A800380E1B20180BDE8F08FB9F1000F6C
:104630001DD0ABF800005046AAF800C0C9B2AAF8D5
:104640000010761E310AAAF80010F1B20180ABF812
:1046500000205046AAF80030E1B2AAF80010BEF8D7
:104660000210491E0A0AAAF80020C9B2DBE71FFAA5
:1046700088F1ABF8000000265046AAF80060AAF8BE
:1046800000600E0AAAF80060C9B2DFE7ABF80000CC
:10469000AAF800C0401CABF80000C8B2AAF800009D
:1046A000ABF80020AAF80030521CABF80020E0B2B2
:1046B000AAF80000B8E71FFA88F100F015F8B089F1
:1046C0002146BDE8F04F00F00FB80000B800002010
:1046D000FE07006C0248034900890880704700000B
:1046E000B8000020FE07006C024A1080901C018078
:1046F00070470000FE07006C00B51D498FB04FF0F9
:10470000204008601B484860062088600020102276
:10471000C860C1E904028861C86112020862C1E987
:1047200009029200C1E90B02486388630121CDE9C7
:1047300000100F21CDE9021004900321CDE90801FA
:104740000590069007900A900B900C900D9007AA88
:1047500069460748FCF723FD18B16E2106A000F05A
:104760000BFA0948C16941F48061C1610FB000BD15
:1047700074000020040100A02E2E2F5372632F66B8
:10478000736D632E6300000000000140F0B52948FE
:1047900085B0816941F040018161816901F040018A
:1047A0000491816941F010018161816901F010017A
:1047B0000491816941F008018161816901F008017A
:1047C0000491816941F480718161816901F4807192
:1047D0000491816941F020018161816901F020012A
:1047E0000491816941F0040181618069124E00F0F9
:1047F00004000490002220213046FCF729F80F4FD6
:10480000002221213846FCF723F820200124CDE99D
:1048100000040225694603953046FBF721FF21205D
:10482000CDE90004694603953846FBF719FF05B04A
:10483000F0BD00000010024000180140000C0140D3
:104840000D4810B50B4901604FF4E1314160002182
:1048500081600C22C160C0E904128161C161FCF772
:10486000F0FC002805D0BDE81040422103A000F074
:1048700083B910BD00380140340000202E2E2F5384
:1048800072632F75736172742E630000FEE77047C8
:104890000907090E002806DA00F00F0000F1E020F9
:1048A00080F8141D704700F1E02080F80014704774
:1048B0007047704710B5FBF7D7FFBDE81040FCF715
:1048C000BCBC30B58FB001210804CDE90010002434
:1048D000029402250491CDE907504FF4E0100990AD
:1048E0006846FCF79DF900B1FEE70F20CDE90A0507
:1048F0004FF48060CDE90C4002210AA80E94FCF729
:1049000051F800B1FEE7FCF711F94FF47A71B0FBF2
:10491000F1F0FCF77EFC0420FCF76EFC002211464F
:10492000501EFCF70DF80FB030BD00000D480168B7
:1049300041F00101016041680B4A1140416001688A
:104940000A4A11400160016821F480210160416838
:1049500021F4FE0141604FF41F0181600449C0034E
:1049600008607047001002400000FFF8FFFFF6FEED
:1049700008ED00E02DE9F041044600680169E268B5
:1049800021F44051114301612169A0680843616924
:1049900008432168CA6841F20C639A430243CA6023
:1049A00020684169A26921F44071114341614C4979
:1049B00020686425322688423CD1FCF7D5F800EB0C
:1049C000C00101EB001061688900B0FBF1F7FCF752
:1049D000CBF800EBC00101EB00106168B046890024
:1049E000B0FBF1F0B0FBF5F06FF01801484307EBB6
:1049F000800106EB0110B0FBF5F000F0F006FCF7CB
:104A0000B3F800EBC00101EB001061688900B0FB56
:104A1000F1F0B0FBF5F006EB0016FCF7A5F800EBA3
:104A2000C00101EB001061688900B0FBF1F7FCF7F1
:104A30009BF83BE0FCF780F800EBC00101EB0010B5
:104A400061688900B0FBF1F7FCF776F800EBC00174
:104A500001EB00106168B0468900B0FBF1F0B0FBDB
:104A6000F5F06FF01801484307EB800106EB0110E9
:104A7000B0FBF5F000F0F006FCF75EF800EBC001CB
:104A800001EB001061688900B0FBF1F0B0FBF5F0BC
:104A900006EB0016FCF750F800EBC00101EB00102C
:104AA00061688900B0FBF1F7FCF746F800EBC00144
:104AB00001EB001061688900B0FBF1F0B0FBF5F08C
:104AC0006FF01801484307EB800108EB0110B0FBC1
:104AD000F5F0216800F00F0030448860BDE8F081F7
:104AE000003801402DE9F0471D4690460E46044629
:104AF000FBF7B4FE07465FEA08004FF000094FF0ED
:104B0000010808D030E0681C05D095B1FBF7A6FE7F
:104B1000C01BA8420DD82068006836EA0000F2D118
:104B200027E0681C20D025B1FBF798FEC01BA842E7
:104B30001AD92068C16821F08001C1602068C1686D
:104B400021F02001C1602068C16821F48071C1603A
:104B50002068416921F00101416184F8398084F8BD
:104B600038900320BDE8F0872068006836EA00002E
:104B7000D7D00020F6E7FEE7FEE700000FB4054BB4
:104B800010B503A9044A029800F018F810BC5DF8AB
:104B900014FB00009D4F00083000002002E008C810
:104BA000121F08C1002AFAD170477047002001E0A7
:104BB00001C1121F002AFBD1704700002DE9FF4FF1
:104BC0008DB09B460F460446002606E025280BD0F4
:104BD0005A460F999047641C761C20780028F5D11E
:104BE00011B03046BDE8F08F0025A8460122984953
:104BF00000E0054314F8013F203B02FA03F00842AD
:104C0000F7D120782E2817D114F8010F45F00405AC
:104C10002A280ED06FF02F022078A0F13001092948
:104C20000AD808EB880102EB410100EB0108641C83
:104C3000F2E757F8048B641C20786C280DD004DC54
:104C40004C2812D06A2811D104E074280DD07A289B
:104C50000CD10AE045F4001507E0617845F48015B1
:104C6000814202D1641C05F58015641C2278692AF2
:104C700045D008DC002AB3D0582A69D0632A10D066
:104C8000642A08D13BE0702A67D0732A13D0752AB2
:104C90005CD0782A5CD010465A460F999047761C13
:104CA000D3E017F8040B8DF8000000208DF8010008
:104CB000E946012003E057F8049B4FF0FF306907F5
:104CC0004FF0000501D40AE06D1C45450DDA854220
:104CD000FADB19F805100029F6D106E06D1C8542B3
:104CE000FCDB19F805100029F8D12E4404E019F86E
:104CF000010B5A460F9990476D1EF8D2A5E00A2085
:104D00000021CDE90801C5F3025002280DD001CFE2
:104D1000C117031E71F100030DDA4FF0000CD0EB48
:104D20000C006CEB01012D2308E0FF1D27F00707A5
:104D3000F7E80201EDE72B0504D52B238DF8283089
:104D400001233BE0EB0739D02023F7E70A2000E0FE
:104D500010200021CDE9080107E01020002145F0D6
:104D60000405CDE908014FF00808C5F302500228F8
:104D70000FD001CF00214FF0000A2B071FD5702A5A
:104D80000DD0DDE908C38CF0100C5CEA030C0CD0EC
:104D900015E0FF1D27F00707F7E80201EBE74022C7
:104DA0008DF828204FF0010A0BE050EA010306D0ED
:104DB00030238DF828308DF8292002239A46582A6E
:104DC00004D024A20DF120090B9209E026A2F9E7F4
:104DD000DDE90823FBF794FA0B9B9B5C09F8013D86
:104DE00050EA0102F4D1ADEB0900203008906807C9
:104DF00001D44FF001080899884502DDA8EB0100B5
:104E000000E000208046002506E00AA85A46405DE2
:104E10000F9990476D1C761C5545F6DB04E0302059
:104E20005A460F999047761CB8F10001A8F1010885
:104E3000F5DC05E019F8010B5A460F999047761CEE
:104E40000899481E08900029F4DC641CC5E600009F
:104E50000928010030313233343536373839616250
:104E60006364656600000000303132333435363714
:104E700038394142434445460000000010B58EB029
:104E8000342218A16846FBF77FF9234C94F82C00D4
:104E900028B3214601284A6902D002281CD01EE00E
:104EA00094F86300012801D018B105E00F211BA080
:104EB00001E00F211DA0904717490DF111002D3180
:104EC00000F03CF814490DF12700553100F036F898
:104ED00031216846626901E001210EA090470EB0C1
:104EE000002010BD41542B51494F50454E3D225496
:104EF0004350222C2220202020202020202020204F
:104F0000202020202020202020222C223232313547
:104F100034220D0A00000000C800002041542B512B
:104F200049444E5349503D300D0A000041542B5125
:104F300049444E5349503D310D0A000003E000BF83
:104F400000F8012B491C0A78002AF9D170470000AB
:104F500010B5094C0D2109A062699047E1694FF431
:104F60009670884762690D2108A09047E169BDE805
:104F700010404B2008470000C800002041542B512E
:104F800049434C4F53450D0A0000000041542B4348
:104F9000474154543D300D0A0000000008B502237B
:104FA0008DF80000012269460248FCF70BFA012047
:104FB00008BD00003400002013460A4610B5014623
:104FC0000348FCF799F9024890F82C0010BD000046
:104FD000340000200A46014605230148FCF7F2B9D7
:104FE0003400002010B564210C48FBF7E6F80B48AC
:104FF0000B4941600B49C1600B4901610B490160DC
:105000000B4981600B4981610B4941610B49C161C9
:105010000B4901620B49416210BD0000C80000202D
:10502000F55100087D4E0008514F00084950000816
:10503000E5500008B94F0008D54F0008D705000813
:1050400075510008AD5100080C4810B5002180F8DA
:105050006310012180F82C102D3014210446FBF739
:10506000ACF807492046FFF769FF05490348891F47
:105070005530FFF763FF002010BD0000C80000207E
:105080000E000020FBF7F8FBFFF71BFCFFF77EFB91
:10509000FFF7D6FBFFF730FB20211048FBF7D4FBCE
:1050A000FCF7C6FA4FF6FF70FCF7F4F9FFF79AFF2A
:1050B0000B4C206880474FF4FA756068804728469B
:1050C000FBF789FAA06880472846FBF784FAE06876
:1050D00080472846FBF77FFAEFE70000000C01400D
:1050E000C800002010B5094C0D2109A06269904745
:1050F000E1694B20884762691C2109A09047E1695A
:105100004FF496708847002010BD0000C8000020B2
:1051100041542B43474154543D310D0A00000000D7
:1051200041542B434744434F4E543D312C22495068
:10513000222C22434D4E4554220D0A0070B5002307
:105140001C460BE0AE4205D15B1C0124401CDBB2C7
:10515000491C03E00CB1002305E0401C057815B1A3
:105160000E78002EEED1934201D3002070BD4FF097
:10517000FF3070BD04494A694FF00E0108B103A029
:1051800000E006A010470000C800002041542B5149
:10519000494D4F44453D310D0A00000041542B510B
:1051A000494D4F44453D300D0A000000F8B5064614
:1051B0000BA00C4C006800900D4662690C210AA0FF
:1051C0009047E169052088476269E9B23046904717
:1051D000E169052088476269022168469047F8BD69
:1051E0002C1A0000C800002041542B514953454E51
:1051F000440D0A001CB50A4C07210AA062699047B9
:105200003222A369062168469847062207A168460C
:10521000FFF794FF08B100201CBD4FF0FF301CBD0C
:10522000C800002041542B3F0D0A00000D0A4F4BCF
:105230000D0A00000000000000000000010203044D
:105240000607080900000000010203046C52000870
:1052500000000020340000009C4B0008A052000811
:1052600034000020FC040000AC4B000800000000EB
:1052700000000000323231353400797A2E647475C2
:105280002E686B003231382E3134352E36342E32C2
:10529000313700000000000000A24A0400000000B6
:0400000508000131BD
:00000001FF
